:1000000013C01AC019C018C017C016C015C014C03C
:1000100013C012C011C010C00FC00EC00DC00CC064
:100020000BC00AC009C008C011241FBECFEFD2E028
:10003000DEBFCDBF2CD02EC0E3CF589A2FEF81EE7C
:1000400094E0215080409040E1F700C000005898B3
:100050002FEF81EE94E0215080409040E1F700C006
:1000600000000895589A2FEF89E698E121508040CA
:100070009040E1F700C0000058982FEF83ED90E327
:10008000215080409040E1F700C000000895509A50
:08009000E9DFFECFF894FFCF79
:00000001FF
